:020000040800F2
:1000000000000220CD050008090500080B050008C6
:100010000D0500080F05000811050008000000008C
:1000200000000000000000000000000013050008B0
:100030001505000800000000170500081905000854
:100040001D0600081D0600081D0600081D06000804
:100050001D0600081D0600081D0600081D060008F4
:100060001D0600081D0600081D0600081D060008E4
:100070001D0600081D0600081D0600081D060008D4
:100080001D0600081D0600081D0600081D060008C4
:100090001D0600081D0600081D0600081D060008B4
:1000A0001D0600081D0600081D0600081D060008A4
:1000B0001D0600081D0600081D0600081D06000894
:1000C0001D0600081D0600081D0600081D06000884
:1000D0001D0600081D0600081D0600081D06000874
:1000E0001D0600081D0600081D0600081D06000864
:1000F0001D0600081D0600081D0600081D06000854
:100100001D0600081D0600081D0600081D06000843
:100110001D0600081D0600081D0600081D06000833
:100120001D0600081D0600081D0600081D06000823
:100130001D0600081D0600081D0600081D06000813
:100140001D0600081D0600081D0600081D06000803
:100150001D0600081D0600081D0600081D060008F3
:100160001D0600081D0600081D0600081D060008E3
:100170001D0600081D0600081D06000800000000FE
:080180001D0600081D06000821
:1001880053B94AB9002908BF00281CBF4FF0FF31F6
:100198004FF0FF3000F00CB8ADF1080C6DE904CE5B
:1001A80001F058F8DDF804E0DDE9022304B07047F7
:1001B800704700BF0348044B834202D0034B03B18E
:1001C80018477047100000201000002000000000B1
:1001D8000548064B1B1AD90F01EBA301491002D0A1
:1001E800034B03B11847704710000020100000208F
:1001F8000000000010B5064C237843B9FFF7DAFF7A
:10020800044B13B10448AFF300800123237010BDE1
:100218001000002000000000DC16000808B5054B9F
:100228001BB105490548AFF30080BDE80840FFF75A
:10023800CFBF00BF0000000014000020DC1600083B
:100248002DE9F0418AB00024059406940794089497
:1002580009940094314B1A6B42F080021A631A6BAE
:1002680002F080020092009A01941A6B42F0040294
:100278001A631A6B02F004020192019A02941A6B33
:1002880042F001021A631A6B02F001020292029A0A
:1002980003941A6B42F002021A631A6B02F002020C
:1002A8000392039A04941A6B42F010021A631B6BB0
:1002B80003F010030493049BDFF864802246212195
:1002C800404600F05FFB174F22460221384600F0F7
:1002D80059FB154E22468021304600F053FB21235E
:1002E8000593012506950794089405A9404600F052
:1002F8004FFA0223059306950794089405A93846F2
:1003080000F046FA8023059306950794089405A9FA
:10031800304600F03DFA0AB0BDE8F08100380240EE
:1003280000080240000402400010024072B6FEE7D6
:1003380000B595B03022002108A801F0E9F80023A3
:100348000393049305930693079301931F4A116C33
:1003580041F080511164126C02F080520192019AAE
:1003680002931B4A116841F480411160126802F43B
:1003780080420292029A0222089201210B911021D6
:100388000C910E920F9308231093A82311931292A5
:100398000423139308A800F005FB98B90F230393CF
:1003A80002230493002305934FF4A05306934FF4BC
:1003B80080530793052103A800F05EFD20B915B00E
:1003C8005DF804FBFFF7B2FFFFF7B0FF003802400B
:1003D8000070004008B500F045F9FFF7A9FFFFF7E6
:1003E8002FFF00F017F800F099F802E013460122F9
:1003F8001A700121054800F0CBFA054A1378013339
:10040800DBB21370042BF4D9F0E700BF00080240F8
:100418002C00002008B50E480E4B03604FF4827381
:1004280043604FF4004383600023C360036143616A
:100438004FF400728261C3610362436283620A23DC
:10044800C36200F0EFFD00B908BDFFF76FFFFBE7DF
:10045800300000200030014000B589B0002303932C
:1004680004930593069307930268154B9A4202D0AA
:1004780009B05DF804FB0021019103F584335A6C3F
:1004880042F480525A645A6C02F480520192019AE2
:1004980002911A6B42F001021A631B6B03F001030D
:1004A8000293029BA023039302230493032306933E
:1004B8000523079303A9034800F06AF9D8E700BFAA
:1004C800003001400000024082B0002100910B4B37
:1004D8005A6C42F480425A645A6C02F48042009288
:1004E800009A01911A6C42F080521A641B6C03F056
:1004F80080530193019B02B0704700BF003802404F
:10050800FEE7FEE7FEE7FEE7FEE770477047704745
:1005180008B500F0C1F808BD7047000008B50A48E2
:100528000A4B03604FF4E133436000238360C360E8
:1005380003610C2242618361C36100F05BFE00B974
:1005480008BDFFF7F3FEFBE788000020001001401C
:1005580000B589B00023039304930593069307938A
:10056800026803F1804303F588339A4202D009B048
:100578005DF804FB0021019103F594335A6C42F0B5
:1005880010025A645A6C02F010020192019A029108
:100598001A6B42F001021A631B6B03F0010302930A
:1005A800029B4FF4C063039302230493032306932F
:1005B8000723079303A9024800F0EAF8D7E700BF2A
:1005C80000000240DFF834D0FFF7A6FF0C480D49C1
:1005D8000D4A002302E0D458C4500433C4188C4296
:1005E800F9D30A4A0A4C002301E013600432A242FC
:1005F800FBD300F0DFFFFFF7EDFE7047000002209D
:100608000000002010000020201700081000002023
:100618006C020020FEE7000010B504460E4B1A7865
:100628004FF47A73B3FBF2F30C4A1068B0FBF3F0A3
:1006380000F09AF868B90F2C01D901200AE00022CD
:1006480021464FF0FF3000F07FF8054B1C6000207A
:1006580000E0012010BD00BF0400002000000020C1
:100668000800002008B50B4B1A6842F400721A60A3
:100678001A6842F480621A601A6842F480721A603A
:10068800032000F04FF80F20FFF7C6FFFFF71CFF0D
:10069800002008BD003C0240034A1168034B1B7848
:1006A8000B441360704700BFD000002004000020F6
:1006B800014B1868704700BFD0000020002808DBF5
:1006C8000901C9B200F1604000F5614080F80013EB
:1006D800704700F00F000901C9B2014B1954704767
:1006E80014ED00E000B500F00700C0F1070CBCF104
:1006F800040F28BF4FF0040C031D062B0FD9C31E8F
:100708004FF0FF3E0EFA0CF021EA000199400EFA74
:1007180003FE22EA0E0241EA02005DF804FB002310
:10072800EEE70000074AD36823F4E0631B041B0CC0
:10073800000200F4E060034343F0BF6343F4003376
:10074800D360704700ED00E010B50446054BD8684B
:10075800C0F30220FFF7C6FF01462046FFF7AEFFB1
:1007680010BD00BF00ED00E00138B0F1807F0BD272
:100778004FF0E0235861054AF02182F82310002049
:10078800986107221A6170470120704700ED00E068
:1007980000230F2B00F2EC8030B583B068E0856849
:1007A8004FEA430E032404FA0EF425EA0405CC6844
:1007B80004FA0EF42C438460446824EA02044A686C
:1007C800C2F300129A40224342605FE0DC0808341A
:1007D80050F8242003F00705AD004FF00F0E0EFA75
:1007E80005FE22EA0E0E0A69AA4042EA0E0240F805
:1007F80024205FE0072200E0002202FA0EF22A43DA
:1008080002345C4D45F824205B4A94686FEA0C0278
:1008180024EA0C05D1F804E01EF4801F01D04CEA4C
:100828000405554CA560E46802EA0405D1F804E023
:100838001EF4001F01D04CEA04054F4CE5606468C3
:1008480002EA0405D1F804E01EF4003F01D04CEAA6
:100858000405494C6560246822404D6815F4803FC2
:1008680001D04CEA0402444C226001330F2B7DD89E
:1008780001229A400C6804EA020C32EA0404F4D11A
:100888004C6804F00304013C012C88D94A6802F042
:100898000302032A09D0C4685D000322AA4024EA9F
:1008A80002048A68AA402243C2604A6802F003022E
:1008B800022A8BD004684FEA430E032202FA0EF292
:1008C80024EA02044A6802F0030202FA0EF2224302
:1008D80002604A6812F4403FC7D000220192274ABA
:1008E800546C44F480445464526C02F48042019283
:1008F800019A9C08A51C1F4A52F8255003F0030EC4
:100908004FEA8E0E0F2202FA0EF225EA02051C4A61
:1009180090423FF471AF02F5806290421AD002F51E
:100928008062904218D002F58062904216D002F59B
:100938008062904214D002F58062904212D002F593
:100948008062904210D002F5806290423FF452AF2C
:10095800082252E7012250E702224EE703224CE721
:1009680004224AE7052248E7062246E703B030BDDD
:10097800704700BF00380140003C01400038024089
:10098800000002400AB18161704709048161704723
:10099800436901EA030221EA030141EA0241816154
:1009A80070470000002800F0E08170B582B004466E
:1009B800036813F0010F3BD09F4B9B6803F00C03B7
:1009C800042B2CD09C4B9B6803F00C03082B21D0E4
:1009D8006368B3F5803F4FD0B3F5A02F52D0964B44
:1009E8001A6822F480321A601A6822F480221A6087
:1009F8006368002B50D0FFF75BFE05468E4B1B68E3
:100A080013F4003F14D1FFF753FE401B6428F5D9B7
:100A18000320B1E1884B5B6813F4800FD8D0864B74
:100A28001B6813F4003F03D06368002B00F09F811C
:100A3800236813F0020F54D07F4B9B6813F00C0F00
:100A48003ED07D4B9B6803F00C03082B33D0E36842
:100A5800002B68D0794B01221A60FFF729FE054662
:100A6800754B1B6813F0020F54D1FFF721FE401B92
:100A78000228F5D903207FE16F4A136843F48033D5
:100A88001360B5E76C4B1A6842F480221A601A6842
:100A980042F480321A60ABE7FFF70AFE0546664B60
:100AA8001B6813F4003FC3D0FFF702FE401B642805
:100AB800F5D9032060E1604B5B6813F4800FC6D161
:100AC8005D4B1B6813F0020F03D0E368012B40F065
:100AD8005081594A136823F0F803216943EAC10396
:100AE8001360236813F0080F42D063696BB3534B4C
:100AF8000122C3F8802EFFF7DBFD05464E4B5B6FE6
:100B080013F0020F34D1FFF7D3FD401B0228F5D9AB
:100B1800032031E1484A136823F0F803216943EAC6
:100B2800C1031360DDE7454B00221A60FFF7C0FDE3
:100B38000546414B1B6813F0020FD2D0FFF7B8FDF2
:100B4800401B0228F5D9032016E13C4B0022C3F8CC
:100B5800802EFFF7ADFD0546374B5B6F13F0020F94
:100B680006D0FFF7A5FD401B0228F5D9032003E1B5
:100B7800236813F0040F77D02F4B1B6C13F0805FA2
:100B880033D1002301932C4B1A6C42F080521A6423
:100B98001B6C03F080530193019B0125284B1B68B4
:100BA80013F4807F23D0A368012B34D0052B38D0D1
:100BB800214B1A6F22F001021A671A6F22F0040201
:100BC8001A67A368002B3DD0FFF772FD06461A4B43
:100BD8001B6F13F0020F46D1FFF76AFD801B41F22D
:100BE80088339842F3D90320C6E00025D6E7144A93
:100BF800136843F480731360FFF75AFD0646104BE1
:100C08001B6813F4807FCED1FFF752FD801B0228AA
:100C1800F5D90320B0E0084A136F43F001031367C6
:100C2800CFE7054B1A6F42F004021A671A6F42F0B9
:100C380001021A67C5E700BF0038024000004742BA
:100C480000700040FFF734FD0646524B1B6F13F04F
:100C5800020F08D0FFF72CFD801B41F28833984221
:100C6800F3D9032088E0EDB9A369002B00F0838055
:100C7800484A926802F00C02082A51D0022B17D079
:100C8800454B00221A66FFF713FD0446414B1B68CB
:100C980013F0007F42D0FFF70BFD001B0228F5D9A7
:100CA800032069E03B4A136C23F080531364DBE7AD
:100CB800394B00221A66FFF7FBFC0546354B1B68CB
:100CC80013F0007F06D0FFF7F3FC401B0228F5D98C
:100CD800032051E0E369226A1343626A43EA8213FC
:100CE800A26A5208013A43EA0243E26A43EA02630B
:100CF800284A5360284B01221A66FFF7D9FC04469C
:100D0800244B1B6813F0007F06D1FFF7D1FC001BB2
:100D18000228F5D903202FE000202DE000202BE049
:100D2800012B2BD01B4B5B6803F48001E2699142D5
:100D380026D103F03F02216A8A4223D1616A47F62D
:100D4800C0721A40B2EB811F1ED103F44031A26A6F
:100D58005208013AB1EB024F18D103F07063E26A0E
:100D6800B3EB026F14D1002006E001207047012088
:100D780002E0012000E0002002B070BD0120FBE786
:100D88000120F9E70120F7E70120F5E70120F3E763
:100D98000120F1E7003802400000474208B5334B14
:100DA8009B6803F00C03042B5BD0082B5BD12F4B03
:100DB8005A6802F03F025B6813F4800F2CD02B4B6B
:100DC8005868C0F388104FEA401CBCEB000C6EEB6F
:100DD8000E0E4FEA8E1343EA9C634FEA8C11B1EB77
:100DE8000C0163EB0E03DB0043EA5173C90011EBFE
:100DF800000C43F10003590200234FEA4C2041EA5A
:100E0800DC51FFF7BDF9194B5B68C3F301430133AC
:100E18005B00B0FBF3F008BD144B5868C0F38810B2
:100E28004FEA401CBCEB000C6EEB0E0E4FEA8E1323
:100E380043EA9C634FEA8C11B1EB0C0163EB0E03A0
:100E4800DB0043EA5173C90011EB000C43F10003C6
:100E5800990200234FEA8C2041EA9C51FFF790F950
:100E6800D1E70348D7E70348D5E700BF0038024079
:100E780000127A000024F400002800F09B8070B56E
:100E88000D4604464F4B1B6803F007038B4208D2FC
:100E9800CBB24C4A1370136803F007038B4240F03F
:100EA8008B80236813F0020F17D013F0040F04D0BF
:100EB800454A936843F4E0539360236813F0080F9E
:100EC80004D0414A936843F4604393603E4A936870
:100ED80023F0F003A1680B439360236813F0010F1C
:100EE80032D06368012B21D09A1E012A25D9364AAF
:100EF800126812F0020F61D033498A6822F00302A7
:100F080013438B60FFF7D4FB06462F4B9B6803F017
:100F18000C036268B3EB820F16D0FFF7C9FB801B86
:100F280041F288339842F0D9032042E0264A1268F9
:100F380012F4003FE0D101203BE0234A126812F08E
:100F4800007FD9D1012034E01E4B1B6803F0070352
:100F5800AB4207D9EAB21B4B1A701B6803F00703B0
:100F6800AB422DD1236813F0040F06D0164A9368BC
:100F780023F4E053E1680B439360236813F0080FF0
:100F880007D0114A936823F46043216943EAC103F7
:100F98009360FFF703FF0C4B9B68C3F303130B4AE3
:100FA800D35CD8400A4B18600A4B1868FFF734FB2B
:100FB800002070BD012070470120FAE70120F8E702
:100FC8000120F6E7003C024000380240FC16000809
:100FD8000000002008000020014B1868704700BF7F
:100FE8000000002008B5FFF7F7FF044B9B68C3F328
:100FF8008223034AD35CD84008BD00BF00380240B2
:10100800F416000808B5FFF7E7FF044B9B68C3F325
:101018004233034AD35CD84008BD00BF00380240C1
:10102800F416000800285AD010B50446436A33B9AC
:101038004368B3F5827F05D00023C36102E0002333
:10104800036143610023A36294F85130002B40D020
:10105800022384F851302268136823F04003136098
:10106800636803F48273A26802F404421343E268DB
:1010780002F400621343226902F002021343626918
:1010880002F001021343A26902F400721343E269F9
:1010980002F038021343226A02F080021343A26A64
:1010A80002F40052216813430B60638B03F00403BE
:1010B800626A02F01002216813434B602268D36908
:1010C80023F40063D36100206065012384F8513064
:1010D80010BD84F850302046FFF7BEF9B8E701206C
:1010E8007047000010B504460268136923F44053A2
:1010F800C1680B431361836802691A4343691A4341
:10110800C3691A430168CB6823F4164323F00C0320
:101118001343CB600268536923F4407381690B431E
:1011280053610368314A934206D002F580629342C4
:1011380002D0FFF757FF01E0FFF764FFE369B3F55B
:10114800004F29D00021031849411B1841F1000123
:10115800C90041EA5371DB00181863684FEA83023B
:101168004FEA937341F10001FFF70AF8204AA2FB06
:1011780000314909642303FB11031B013233A2FB2D
:1011880003235B0903F0F00202EB011203F00F03E3
:10119800216813448B6010BD0023021843EB030140
:1011A800121841F10001C90041EA5271D200101829
:1011B80041F10001626892185B41FEF7E1FF0C4AB9
:1011C800A2FB00314909642303FB1103DB0032331E
:1011D800A2FB03235B095A0002F4F87202EB011226
:1011E80003F00703216813448B60D4E70010014023
:1011F8001F85EB5160B310B5044690F8413013B326
:10120800242384F841302268D36823F40053D36040
:101218002046FFF767FF2268136923F490431361A0
:101228002268536923F02A0353612268D36843F480
:101238000053D36000206064202384F8413084F890
:101248004230606310BD80F84030FFF781F9D7E77E
:10125800012070472DE9F047089D0E4604460F46C9
:10126800002B4AD194468C45B2FA82F260D942B139
:10127800C2F12003974020FA03F30CFA02FC1F4343
:1012880094404FEA1C4E1FFA8CF6B7FBFEF1230C74
:101298000EFB117743EA074301FB06F098420AD98F
:1012A8001CEB030301F1FF3780F01581984240F2EF
:1012B8001281023963441B1AA4B2B3FBFEF00EFB81
:1012C800103344EA034400FB06F6A6420AD91CEB95
:1012D800040400F1FF3380F00081A64240F2FD8053
:1012E8006444023840EA0140A41B00211DB1D440E7
:1012F8000023C5E90043BDE8F0878B4205D90DB14D
:10130800C5E9000100210846F5E7B3FA83F1002991
:1013180046D1B34202D3824200F2F580841A66EBCA
:10132800030201201746002DE5D0C5E90047E2E792
:10133800002A40F09380A1EB0C034FEA1C471FFAE8
:101348008CFE0121B3FBF7F607FB1630230C43EAAA
:1013580000430EFB06F0984208D91CEB030306F184
:10136800FF3802D2984200F2D08046461B1AA4B237
:10137800B3FBF7F007FB103344EA03440EFB00FE0F
:10138800A64508D91CEB040400F1FF3302D2A64598
:1013980000F2B6801846A4EB0E0440EA0640A5E722
:1013A800C1F120078B4022FA07FC4CEA030C06FA2D
:1013B80001FE20FA07F426FA07F344EA0E0400FABD
:1013C80001F84FEA1C404FEA1449B3FBF0FE1FFA3C
:1013D8008CF600FB1E3349EA03430EFB06F99945D8
:1013E80002FA01F20BD91CEB03030EF1FF3A80F06D
:1013F8008580994540F28280AEF1020E6344A3EBEA
:101408000909A4B2B9FBF0F300FB139944EA0944B3
:1014180003FB06F6A64208D91CEB040403F1FF30CF
:1014280068D2A64266D9023B644443EA0E40A41B34
:10143800A0FB02E6B4427346B14652D34FD05DB129
:10144800B8EB030264EB090404FA07F722FA01F384
:101458001F43CC40C5E9007400214CE7C2F12001CC
:1014680020FA01F30CFA02FC26FA01F19640334304
:101478004FEA1C471FFA8CFEB1FBF7F007FB10166A
:10148800190C41EA064100FB0EF68E4204FA02F4FA
:1014980008D91CEB010100F1FF382DD28E422BD95F
:1014A80002386144891B9BB2B1FBF7F607FB1611A2
:1014B80043EA014306FB0EF1994208D91CEB0303EA
:1014C80006F1FF3814D2994212D9023E63445B1ADE
:1014D80046EA004136E73946EDE6184602E7F045A8
:1014E800ADD2BEEB020366EB0C060138B146A6E7A7
:1014F8004646ECE7034698E74046D3E7D6467EE7FC
:101508006444023847E708460DE7023E63442DE786
:10151800830730B547D0541E002A3ED0CAB20346CE
:1015280001E0013C39D303F8012B9D07F9D1032CC5
:101538002CD9CDB205EB05250F2C05EB054535D982
:10154800A4F1100222F00F0C03F1100EE6444FEA4A
:10155800121C1A46C2E90055C2E9025510327245FA
:10156800F8D10CF1010214F00C0F03EB021204F095
:101578000F0C13D0ACF1040323F00303043313441A
:1015880042F8045B9342FBD10CF003042CB1C9B2BE
:101598001C4403F8011BA342FBD130BD644613462B
:1015A800002CF4D1F9E703461446C0E71A46A446CE
:1015B800E0E700BF70B50F4B0F4DAB42A3EB05063C
:1015C80007D0B610002455F8043B01349847A642CA
:1015D800F9D800F07FF8094D094B5E1BAB424FEA82
:1015E800A60606D0002455F8043B01349847A642C5
:1015F800F9D870BD1417000814170008141700084C
:101608001C170008704700BF704700BF024B13B19A
:10161800024800F005B870470000000035160008C1
:10162800002301461A46184600F014B838B5074D8D
:10163800074C2C1BA41005D0013C55F8043D9847D5
:10164800002CF9D1BDE8384000F04AB8201700084E
:101658001C1700082DE9F8431B4D064628689846D4
:101668000F469146FFF7CEFF184B1C681CB328683D
:1016780065681F2D22DC4EB96B1C0235636044F887
:101688002570FFF7C1FF0020BDE8F88304EB850152
:101698000123C1F88890D4F88821AB401A43022E60
:1016A800C4F88821C1F80881E6D1D4F88C211A43FE
:1016B800C4F88C21E0E7064C1C60D8E7FFF7A4FFCC
:1016C8004FF0FF30E0E700BF0C000020D8000020FA
:1016D800DC000020F8B500BFF8BC08BC9E46704787
:0C16E800F8B500BFF8BC08BC9E46704777
:1016F40000000000010203040000000000000000DC
:081704000102030406070809B5
:08170C0050FBFF7F010000000B
:0817140015160008250200086B
:04171C00FD010008C3
:101720000024F4000100000010000000D40000209C
:04000005080005CD1D
:00000001FF
